{
  "contractName": "Identitat",
  "abi": [
    {
      "constant": true,
      "inputs": [],
      "name": "version",
      "outputs": [
        {
          "name": "",
          "type": "bytes32"
        }
      ],
      "payable": false,
      "stateMutability": "view",
      "type": "function"
    },
    {
      "inputs": [],
      "payable": false,
      "stateMutability": "nonpayable",
      "type": "constructor"
    },
    {
      "payable": true,
      "stateMutability": "payable",
      "type": "fallback"
    },
    {
      "anonymous": false,
      "inputs": [
        {
          "indexed": true,
          "name": "newOwner",
          "type": "address"
        }
      ],
      "name": "OwnershipChanged",
      "type": "event"
    },
    {
      "anonymous": false,
      "inputs": [
        {
          "indexed": true,
          "name": "claimRequestId",
          "type": "uint256"
        },
        {
          "indexed": true,
          "name": "topic",
          "type": "uint256"
        },
        {
          "indexed": false,
          "name": "scheme",
          "type": "uint256"
        },
        {
          "indexed": true,
          "name": "issuer",
          "type": "address"
        },
        {
          "indexed": false,
          "name": "signature",
          "type": "bytes"
        },
        {
          "indexed": false,
          "name": "data",
          "type": "bytes"
        },
        {
          "indexed": false,
          "name": "uri",
          "type": "string"
        }
      ],
      "name": "ClaimRequested",
      "type": "event"
    },
    {
      "anonymous": false,
      "inputs": [
        {
          "indexed": true,
          "name": "claimId",
          "type": "bytes32"
        },
        {
          "indexed": true,
          "name": "topic",
          "type": "uint256"
        },
        {
          "indexed": false,
          "name": "scheme",
          "type": "uint256"
        },
        {
          "indexed": true,
          "name": "issuer",
          "type": "address"
        },
        {
          "indexed": false,
          "name": "signature",
          "type": "bytes"
        },
        {
          "indexed": false,
          "name": "data",
          "type": "bytes"
        },
        {
          "indexed": false,
          "name": "uri",
          "type": "string"
        }
      ],
      "name": "ClaimAdded",
      "type": "event"
    },
    {
      "anonymous": false,
      "inputs": [
        {
          "indexed": true,
          "name": "claimId",
          "type": "bytes32"
        },
        {
          "indexed": true,
          "name": "topic",
          "type": "uint256"
        },
        {
          "indexed": false,
          "name": "scheme",
          "type": "uint256"
        },
        {
          "indexed": true,
          "name": "issuer",
          "type": "address"
        },
        {
          "indexed": false,
          "name": "signature",
          "type": "bytes"
        },
        {
          "indexed": false,
          "name": "data",
          "type": "bytes"
        },
        {
          "indexed": false,
          "name": "uri",
          "type": "string"
        }
      ],
      "name": "ClaimRemoved",
      "type": "event"
    },
    {
      "anonymous": false,
      "inputs": [
        {
          "indexed": true,
          "name": "claimId",
          "type": "bytes32"
        },
        {
          "indexed": true,
          "name": "topic",
          "type": "uint256"
        },
        {
          "indexed": false,
          "name": "scheme",
          "type": "uint256"
        },
        {
          "indexed": true,
          "name": "issuer",
          "type": "address"
        },
        {
          "indexed": false,
          "name": "signature",
          "type": "bytes"
        },
        {
          "indexed": false,
          "name": "data",
          "type": "bytes"
        },
        {
          "indexed": false,
          "name": "uri",
          "type": "string"
        }
      ],
      "name": "ClaimChanged",
      "type": "event"
    },
    {
      "anonymous": false,
      "inputs": [
        {
          "indexed": true,
          "name": "key",
          "type": "bytes32"
        },
        {
          "indexed": true,
          "name": "purpose",
          "type": "uint256"
        },
        {
          "indexed": true,
          "name": "keyType",
          "type": "uint256"
        }
      ],
      "name": "KeyAdded",
      "type": "event"
    },
    {
      "anonymous": false,
      "inputs": [
        {
          "indexed": true,
          "name": "key",
          "type": "bytes32"
        },
        {
          "indexed": true,
          "name": "purpose",
          "type": "uint256"
        },
        {
          "indexed": true,
          "name": "keyType",
          "type": "uint256"
        }
      ],
      "name": "KeyRemoved",
      "type": "event"
    },
    {
      "anonymous": false,
      "inputs": [
        {
          "indexed": true,
          "name": "executionId",
          "type": "uint256"
        },
        {
          "indexed": true,
          "name": "to",
          "type": "address"
        },
        {
          "indexed": true,
          "name": "value",
          "type": "uint256"
        },
        {
          "indexed": false,
          "name": "data",
          "type": "bytes"
        }
      ],
      "name": "ExecutionRequested",
      "type": "event"
    },
    {
      "anonymous": false,
      "inputs": [
        {
          "indexed": true,
          "name": "executionId",
          "type": "uint256"
        },
        {
          "indexed": true,
          "name": "to",
          "type": "address"
        },
        {
          "indexed": true,
          "name": "value",
          "type": "uint256"
        },
        {
          "indexed": false,
          "name": "data",
          "type": "bytes"
        }
      ],
      "name": "Executed",
      "type": "event"
    },
    {
      "anonymous": false,
      "inputs": [
        {
          "indexed": true,
          "name": "executionId",
          "type": "uint256"
        },
        {
          "indexed": false,
          "name": "approved",
          "type": "bool"
        }
      ],
      "name": "Approved",
      "type": "event"
    },
    {
      "constant": true,
      "inputs": [
        {
          "name": "_key",
          "type": "bytes32"
        }
      ],
      "name": "getKey",
      "outputs": [
        {
          "name": "purpose",
          "type": "uint256"
        },
        {
          "name": "keyType",
          "type": "uint256"
        },
        {
          "name": "key",
          "type": "bytes32"
        }
      ],
      "payable": false,
      "stateMutability": "view",
      "type": "function"
    },
    {
      "constant": true,
      "inputs": [
        {
          "name": "_key",
          "type": "bytes32"
        },
        {
          "name": "_purpose",
          "type": "uint256"
        }
      ],
      "name": "keyHasPurpose",
      "outputs": [
        {
          "name": "exists",
          "type": "bool"
        }
      ],
      "payable": false,
      "stateMutability": "view",
      "type": "function"
    },
    {
      "constant": true,
      "inputs": [
        {
          "name": "_purpose",
          "type": "uint256"
        }
      ],
      "name": "getKeysByPurpose",
      "outputs": [
        {
          "name": "keys",
          "type": "bytes32[]"
        }
      ],
      "payable": false,
      "stateMutability": "view",
      "type": "function"
    },
    {
      "constant": true,
      "inputs": [
        {
          "name": "_key",
          "type": "bytes32"
        }
      ],
      "name": "getKeyType",
      "outputs": [
        {
          "name": "keyType",
          "type": "uint256"
        }
      ],
      "payable": false,
      "stateMutability": "view",
      "type": "function"
    },
    {
      "constant": true,
      "inputs": [
        {
          "name": "_keyType",
          "type": "uint256"
        }
      ],
      "name": "getKeysByType",
      "outputs": [
        {
          "name": "keys",
          "type": "bytes32[]"
        }
      ],
      "payable": false,
      "stateMutability": "view",
      "type": "function"
    },
    {
      "constant": false,
      "inputs": [
        {
          "name": "_key",
          "type": "bytes32"
        },
        {
          "name": "_purpose",
          "type": "uint256"
        },
        {
          "name": "_keyType",
          "type": "uint256"
        }
      ],
      "name": "addKey",
      "outputs": [
        {
          "name": "success",
          "type": "bool"
        }
      ],
      "payable": false,
      "stateMutability": "nonpayable",
      "type": "function"
    },
    {
      "constant": false,
      "inputs": [
        {
          "name": "_key",
          "type": "bytes32"
        },
        {
          "name": "_purpose",
          "type": "uint256"
        },
        {
          "name": "_keyType",
          "type": "uint256"
        }
      ],
      "name": "removeKey",
      "outputs": [
        {
          "name": "success",
          "type": "bool"
        }
      ],
      "payable": false,
      "stateMutability": "nonpayable",
      "type": "function"
    },
    {
      "constant": false,
      "inputs": [
        {
          "name": "_to",
          "type": "address"
        },
        {
          "name": "_value",
          "type": "uint256"
        },
        {
          "name": "_data",
          "type": "bytes"
        }
      ],
      "name": "execute",
      "outputs": [
        {
          "name": "executionId",
          "type": "uint256"
        }
      ],
      "payable": false,
      "stateMutability": "nonpayable",
      "type": "function"
    },
    {
      "constant": false,
      "inputs": [
        {
          "name": "_id",
          "type": "uint256"
        },
        {
          "name": "_approve",
          "type": "bool"
        }
      ],
      "name": "approve",
      "outputs": [
        {
          "name": "success",
          "type": "bool"
        }
      ],
      "payable": false,
      "stateMutability": "nonpayable",
      "type": "function"
    },
    {
      "constant": false,
      "inputs": [
        {
          "name": "_topic",
          "type": "uint256"
        },
        {
          "name": "_scheme",
          "type": "uint256"
        },
        {
          "name": "_issuer",
          "type": "address"
        },
        {
          "name": "_signature",
          "type": "bytes"
        },
        {
          "name": "_data",
          "type": "bytes"
        },
        {
          "name": "_uri",
          "type": "string"
        }
      ],
      "name": "addClaim",
      "outputs": [
        {
          "name": "claimRequestId",
          "type": "bytes32"
        }
      ],
      "payable": false,
      "stateMutability": "nonpayable",
      "type": "function"
    },
    {
      "constant": false,
      "inputs": [
        {
          "name": "_claimId",
          "type": "bytes32"
        },
        {
          "name": "_topic",
          "type": "uint256"
        },
        {
          "name": "_scheme",
          "type": "uint256"
        },
        {
          "name": "_issuer",
          "type": "address"
        },
        {
          "name": "_signature",
          "type": "bytes"
        },
        {
          "name": "_data",
          "type": "bytes"
        },
        {
          "name": "_uri",
          "type": "string"
        }
      ],
      "name": "changeClaim",
      "outputs": [
        {
          "name": "success",
          "type": "bool"
        }
      ],
      "payable": false,
      "stateMutability": "nonpayable",
      "type": "function"
    },
    {
      "constant": false,
      "inputs": [
        {
          "name": "_claimId",
          "type": "bytes32"
        }
      ],
      "name": "removeClaim",
      "outputs": [
        {
          "name": "success",
          "type": "bool"
        }
      ],
      "payable": false,
      "stateMutability": "nonpayable",
      "type": "function"
    },
    {
      "constant": true,
      "inputs": [
        {
          "name": "_claimId",
          "type": "bytes32"
        }
      ],
      "name": "getClaim",
      "outputs": [
        {
          "name": "topic",
          "type": "uint256"
        },
        {
          "name": "scheme",
          "type": "uint256"
        },
        {
          "name": "issuer",
          "type": "address"
        },
        {
          "name": "signature",
          "type": "bytes"
        },
        {
          "name": "data",
          "type": "bytes"
        },
        {
          "name": "uri",
          "type": "string"
        }
      ],
      "payable": false,
      "stateMutability": "view",
      "type": "function"
    },
    {
      "constant": true,
      "inputs": [
        {
          "name": "_topic",
          "type": "uint256"
        }
      ],
      "name": "getClaimIdsByTopic",
      "outputs": [
        {
          "name": "claimIds",
          "type": "bytes32[]"
        }
      ],
      "payable": false,
      "stateMutability": "view",
      "type": "function"
    },
    {
      "constant": false,
      "inputs": [
        {
          "name": "_newOwner",
          "type": "address"
        }
      ],
      "name": "transferOwnership",
      "outputs": [
        {
          "name": "success",
          "type": "bool"
        }
      ],
      "payable": false,
      "stateMutability": "nonpayable",
      "type": "function"
    }
  ],
  "bytecode": "0x60806040527f302e31000000000000000000000000000000000000000000000000000000000060009060001916905534801561003a57600080fd5b50600033604051602001808273ffffffffffffffffffffffffffffffffffffffff1673ffffffffffffffffffffffffffffffffffffffff166c010000000000000000000000000281526014019150506040516020818303038152906040526040518082805190602001908083835b6020831015156100cd57805182526020820191506020810190506020830392506100a8565b6001836020036101000a038019825116818451168082178552505050505050905001915050604051809103902090506060604051908101604052806001815260200160018152602001826000191681525060016000836000191660001916815260200190815260200160002060008201518160000155602082015181600101556040820151816002019060001916905590505060036000600181526020019081526020016000208190806001815401808255809150509060018203906000526020600020016000909192909190915090600019169055506004600060018152602001908152602001600020819080600181540180825580915050906001820390600052602060002001600090919290919091509060001916905550600160008260001916600019168152602001908152602001600020600101546001600083600019166000191681526020019081526020016000206000015482600019167f480000bb1edad8ca1470381cc334b1917fbd51c6531f3a623ea8e0ec7e38a6e960405160405180910390a45061329e806102676000396000f3006080604052600436106100e6576000357c0100000000000000000000000000000000000000000000000000000000900463ffffffff16806312aaac70146100e85780631d3812401461014357806341cbfc7b146101a05780634eee424a1461022257806354fd4d501461026b578063747442d31461029e578063779d385a146102ef57806380e9e9e1146103345780639010f726146103b6578063b1a34e0d14610438578063b61d27f61461057d578063c9100bcb14610624578063d202158d146107e7578063db6a20a51461083a578063ec127cee14610989578063f2fde38b146109e6575b005b3480156100f457600080fd5b506101176004803603810190808035600019169060200190929190505050610a41565b604051808481526020018381526020018260001916600019168152602001935050505060405180910390f35b34801561014f57600080fd5b5061018660048036038101908080356000191690602001909291908035906020019092919080359060200190929190505050610ab0565b604051808215151515815260200191505060405180910390f35b3480156101ac57600080fd5b506101cb60048036038101908080359060200190929190505050610cf5565b6040518080602001828103825283818151815260200191508051906020019060200280838360005b8381101561020e5780820151818401526020810190506101f3565b505050509050019250505060405180910390f35b34801561022e57600080fd5b506102516004803603810190808035600019169060200190929190505050610d64565b604051808215151515815260200191505060405180910390f35b34801561027757600080fd5b50610280611224565b60405180826000191660001916815260200191505060405180910390f35b3480156102aa57600080fd5b506102d56004803603810190808035906020019092919080351515906020019092919050505061122a565b604051808215151515815260200191505060405180910390f35b3480156102fb57600080fd5b5061031e600480360381019080803560001916906020019092919050505061193a565b6040518082815260200191505060405180910390f35b34801561034057600080fd5b5061035f60048036038101908080359060200190929190505050611962565b6040518080602001828103825283818151815260200191508051906020019060200280838360005b838110156103a2578082015181840152602081019050610387565b505050509050019250505060405180910390f35b3480156103c257600080fd5b506103e1600480360381019080803590602001909291905050506119d1565b6040518080602001828103825283818151815260200191508051906020019060200280838360005b83811015610424578082015181840152602081019050610409565b505050509050019250505060405180910390f35b34801561044457600080fd5b5061055f6004803603810190808035906020019092919080359060200190929190803573ffffffffffffffffffffffffffffffffffffffff169060200190929190803590602001908201803590602001908080601f0160208091040260200160405190810160405280939291908181526020018383808284378201915050505050509192919290803590602001908201803590602001908080601f0160208091040260200160405190810160405280939291908181526020018383808284378201915050505050509192919290803590602001908201803590602001908080601f0160208091040260200160405190810160405280939291908181526020018383808284378201915050505050509192919290505050611a40565b60405180826000191660001916815260200191505060405180910390f35b34801561058957600080fd5b5061060e600480360381019080803573ffffffffffffffffffffffffffffffffffffffff16906020019092919080359060200190929190803590602001908201803590602001908080601f0160208091040260200160405190810160405280939291908181526020018383808284378201915050505050509192919290505050611f20565b6040518082815260200191505060405180910390f35b34801561063057600080fd5b50610653600480360381019080803560001916906020019092919050505061244b565b604051808781526020018681526020018573ffffffffffffffffffffffffffffffffffffffff1673ffffffffffffffffffffffffffffffffffffffff168152602001806020018060200180602001848103845287818151815260200191508051906020019080838360005b838110156106d95780820151818401526020810190506106be565b50505050905090810190601f1680156107065780820380516001836020036101000a031916815260200191505b50848103835286818151815260200191508051906020019080838360005b8381101561073f578082015181840152602081019050610724565b50505050905090810190601f16801561076c5780820380516001836020036101000a031916815260200191505b50848103825285818151815260200191508051906020019080838360005b838110156107a557808201518184015260208101905061078a565b50505050905090810190601f1680156107d25780820380516001836020036101000a031916815260200191505b50995050505050505050505060405180910390f35b3480156107f357600080fd5b50610820600480360381019080803560001916906020019092919080359060200190929190505050612715565b604051808215151515815260200191505060405180910390f35b34801561084657600080fd5b5061096f60048036038101908080356000191690602001909291908035906020019092919080359060200190929190803573ffffffffffffffffffffffffffffffffffffffff169060200190929190803590602001908201803590602001908080601f0160208091040260200160405190810160405280939291908181526020018383808284378201915050505050509192919290803590602001908201803590602001908080601f0160208091040260200160405190810160405280939291908181526020018383808284378201915050505050509192919290803590602001908201803590602001908080601f0160208091040260200160405190810160405280939291908181526020018383808284378201915050505050509192919290505050612751565b604051808215151515815260200191505060405180910390f35b34801561099557600080fd5b506109cc60048036038101908080356000191690602001909291908035906020019092919080359060200190929190505050612a1f565b604051808215151515815260200191505060405180910390f35b3480156109f257600080fd5b50610a27600480360381019080803573ffffffffffffffffffffffffffffffffffffffff169060200190929190505050612ce8565b604051808215151515815260200191505060405180910390f35b60008060006001600085600019166000191681526020019081526020016000206000015460016000866000191660001916815260200190815260200160002060010154600160008760001916600019168152602001908152602001600020600201549250925092509193909250565b6000600180600033604051602001808273ffffffffffffffffffffffffffffffffffffffff1673ffffffffffffffffffffffffffffffffffffffff166c010000000000000000000000000281526014019150506040516020818303038152906040526040518082805190602001908083835b602083101515610b475780518252602082019150602081019050602083039250610b22565b6001836020036101000a03801982511681845116808217855250505050505090500191505060405180910390206000191660001916815260200190815260200160002060000154141515610b9a57600080fd5b8360001916600160008660001916600019168152602001908152602001600020600201546000191614151515610bcf57600080fd5b60606040519081016040528084815260200183815260200185600019168152506001600086600019166000191681526020019081526020016000206000820151816000015560208201518160010155604082015181600201906000191690559050506003600084815260200190815260200160002084908060018154018082558091505090600182039060005260206000200160009091929091909150906000191690555060046000838152602001908152602001600020849080600181540180825580915050906001820390600052602060002001600090919290919091509060001916905550818385600019167f480000bb1edad8ca1470381cc334b1917fbd51c6531f3a623ea8e0ec7e38a6e960405160405180910390a4600190509392505050565b606060046000838152602001908152602001600020805480602002602001604051908101604052809291908181526020018280548015610d5857602002820191906000526020600020905b81546000191681526020019060010190808311610d40575b50505050509050919050565b60008060026000846000191660001916815260200190815260200160002060020160009054906101000a900473ffffffffffffffffffffffffffffffffffffffff1673ffffffffffffffffffffffffffffffffffffffff163373ffffffffffffffffffffffffffffffffffffffff16141515610ddf57600080fd5b60026000846000191660001916815260200190815260200160002060020160009054906101000a900473ffffffffffffffffffffffffffffffffffffffff1673ffffffffffffffffffffffffffffffffffffffff166002600085600019166000191681526020019081526020016000206000015484600019167f3cf57863a89432c61c4a27073c6ee39e8a764bff5a05aebfbcdcdc80b2e6130a60026000886000191660001916815260200190815260200160002060010154600260008960001916600019168152602001908152602001600020600301600260008a60001916600019168152602001908152602001600020600401600260008b6000191660001916815260200190815260200160002060050160405180858152602001806020018060200180602001848103845287818154600181600116156101000203166002900481526020019150805460018160011615610100020316600290048015610f895780601f10610f5e57610100808354040283529160200191610f89565b820191906000526020600020905b815481529060010190602001808311610f6c57829003601f168201915b505084810383528681815460018160011615610100020316600290048152602001915080546001816001161561010002031660029004801561100c5780601f10610fe15761010080835404028352916020019161100c565b820191906000526020600020905b815481529060010190602001808311610fef57829003601f168201915b505084810382528581815460018160011615610100020316600290048152602001915080546001816001161561010002031660029004801561108f5780601f106110645761010080835404028352916020019161108f565b820191906000526020600020905b81548152906001019060200180831161107257829003601f168201915b505097505050505050505060405180910390a460026000846000191660001916815260200190815260200160002060008082016000905560018201600090556002820160006101000a81549073ffffffffffffffffffffffffffffffffffffffff02191690556003820160006111059190612fbd565b6004820160006111159190612fbd565b6005820160006111259190613005565b5050600090505b600560006002600086600019166000191681526020019081526020016000206000015481526020019081526020016000208054905081101561121a57826000191660056000600260008760001916600019168152602001908152602001600020600001548152602001908152602001600020828154811015156111ab57fe5b906000526020600020015460001916141561120d5760056000600260008660001916600019168152602001908152602001600020600001548152602001908152602001600020818154811015156111fe57fe5b90600052602060002001600090555b808060010191505061112c565b6001915050919050565b60005481565b600080600180600033604051602001808273ffffffffffffffffffffffffffffffffffffffff1673ffffffffffffffffffffffffffffffffffffffff166c010000000000000000000000000281526014019150506040516020818303038152906040526040518082805190602001908083835b6020831015156112c2578051825260208201915060208101905060208303925061129d565b6001836020036101000a0380198251168184511680821785525050505050509050019150506040518091039020600019166000191681526020019081526020016000206000015414806113ef575060026001600033604051602001808273ffffffffffffffffffffffffffffffffffffffff1673ffffffffffffffffffffffffffffffffffffffff166c010000000000000000000000000281526014019150506040516020818303038152906040526040518082805190602001908083835b6020831015156113a65780518252602082019150602081019050602083039250611381565b6001836020036101000a03801982511681845116808217855250505050505090500191505060405180910390206000191660001916815260200190815260200160002060000154145b15156113fa57600080fd5b82156118f457837fb3932da477fe5d6c8ff2eafef050c0f3a1af18fc07121001482600f36f3715d884604051808215151515815260200191505060405180910390a2600160066000866001026000191660001916815260200190815260200160002060030160006101000a81548160ff02191690831515021790555060066000856001026000191660001916815260200190815260200160002060000160009054906101000a900473ffffffffffffffffffffffffffffffffffffffff1673ffffffffffffffffffffffffffffffffffffffff1660066000866001026000191660001916815260200190815260200160002060020160405180828054600181600116156101000203166002900480156115545780601f1061152957610100808354040283529160200191611554565b820191906000526020600020905b81548152906001019060200180831161153757829003601f168201915b50509150506000604051808303816000865af1915050915081156118b157600160066000866001026000191660001916815260200190815260200160002060030160016101000a81548160ff02191690831515021790555060066000856001026000191660001916815260200190815260200160002060000160009054906101000a900473ffffffffffffffffffffffffffffffffffffffff1660066000866001026000191660001916815260200190815260200160002060010154600660008760010260001916600019168152602001908152602001600020600201604051602001808473ffffffffffffffffffffffffffffffffffffffff1673ffffffffffffffffffffffffffffffffffffffff166c01000000000000000000000000028152601401838152602001828054600181600116156101000203166002900480156116d65780601f106116b45761010080835404028352918201916116d6565b820191906000526020600020905b8154815290600101906020018083116116c2575b505093505050506040516020818303038152906040526040518082805190602001908083835b60208310151561172157805182526020820191506020810190506020830392506116fc565b6001836020036101000a03801982511681845116808217855250505050505090500191505060405180910390206001900490506006600085600102600019166000191681526020019081526020016000206001015460066000866001026000191660001916815260200190815260200160002060000160009054906101000a900473ffffffffffffffffffffffffffffffffffffffff1673ffffffffffffffffffffffffffffffffffffffff16827f1f920dbda597d7bf95035464170fa58d0a4b57f13a1c315ace6793b9f63688b8600660008960010260001916600019168152602001908152602001600020600201604051808060200182810382528381815460018160011615610100020316600290048152602001915080546001816001161561010002031660029004801561189a5780601f1061186f5761010080835404028352916020019161189a565b820191906000526020600020905b81548152906001019060200180831161187d57829003601f168201915b50509250505060405180910390a460019150611933565b600060066000866001026000191660001916815260200190815260200160002060030160016101000a81548160ff02191690831515021790555060009150611933565b600060066000866001026000191660001916815260200190815260200160002060030160006101000a81548160ff021916908315150217905550600091505b5092915050565b6000600160008360001916600019168152602001908152602001600020600101549050919050565b6060600560008381526020019081526020016000208054806020026020016040519081016040528092919081815260200182805480156119c557602002820191906000526020600020905b815460001916815260200190600101908083116119ad575b50505050509050919050565b606060036000838152602001908152602001600020805480602002602001604051908101604052809291908181526020018280548015611a3457602002820191906000526020600020905b81546000191681526020019060010190808311611a1c575b50505050509050919050565b60008060036001600033604051602001808273ffffffffffffffffffffffffffffffffffffffff1673ffffffffffffffffffffffffffffffffffffffff166c010000000000000000000000000281526014019150506040516020818303038152906040526040518082805190602001908083835b602083101515611ad95780518252602082019150602081019050602083039250611ab4565b6001836020036101000a03801982511681845116808217855250505050505090500191505060405180910390206000191660001916815260200190815260200160002060000154141515611b2c57600080fd5b600060026000836000191660001916815260200190815260200160002060000154141515611b5957600080fd5b8588604051602001808373ffffffffffffffffffffffffffffffffffffffff1673ffffffffffffffffffffffffffffffffffffffff166c01000000000000000000000000028152601401828152602001925050506040516020818303038152906040526040518082805190602001908083835b602083101515611bf15780518252602082019150602081019050602083039250611bcc565b6001836020036101000a0380198251168184511680821785525050505050509050019150506040518091039020905060c0604051908101604052808981526020018881526020018773ffffffffffffffffffffffffffffffffffffffff16815260200186815260200185815260200184815250600260008360001916600019168152602001908152602001600020600082015181600001556020820151816001015560408201518160020160006101000a81548173ffffffffffffffffffffffffffffffffffffffff021916908373ffffffffffffffffffffffffffffffffffffffff1602179055506060820151816003019080519060200190611cf692919061304d565b506080820151816004019080519060200190611d1392919061304d565b5060a0820151816005019080519060200190611d309291906130cd565b50905050600560008981526020019081526020016000208190806001815401808255809150509060018203906000526020600020016000909192909190915090600019169055508573ffffffffffffffffffffffffffffffffffffffff168882600019167f46149b18aa084502c3f12bc75e19eda8bda8d102b82cce8474677a6d0d5f43c58a89898960405180858152602001806020018060200180602001848103845287818151815260200191508051906020019080838360005b83811015611e07578082015181840152602081019050611dec565b50505050905090810190601f168015611e345780820380516001836020036101000a031916815260200191505b50848103835286818151815260200191508051906020019080838360005b83811015611e6d578082015181840152602081019050611e52565b50505050905090810190601f168015611e9a5780820380516001836020036101000a031916815260200191505b50848103825285818151815260200191508051906020019080838360005b83811015611ed3578082015181840152602081019050611eb8565b50505050905090810190601f168015611f005780820380516001836020036101000a031916815260200191505b5097505050505050505060405180910390a4809150509695505050505050565b6000600180600033604051602001808273ffffffffffffffffffffffffffffffffffffffff1673ffffffffffffffffffffffffffffffffffffffff166c010000000000000000000000000281526014019150506040516020818303038152906040526040518082805190602001908083835b602083101515611fb75780518252602082019150602081019050602083039250611f92565b6001836020036101000a0380198251168184511680821785525050505050509050019150506040518091039020600019166000191681526020019081526020016000206000015414806120e4575060026001600033604051602001808273ffffffffffffffffffffffffffffffffffffffff1673ffffffffffffffffffffffffffffffffffffffff166c010000000000000000000000000281526014019150506040516020818303038152906040526040518082805190602001908083835b60208310151561209b5780518252602082019150602081019050602083039250612076565b6001836020036101000a03801982511681845116808217855250505050505090500191505060405180910390206000191660001916815260200190815260200160002060000154145b15156120ef57600080fd5b838383604051602001808473ffffffffffffffffffffffffffffffffffffffff1673ffffffffffffffffffffffffffffffffffffffff166c0100000000000000000000000002815260140183815260200182805190602001908083835b602083101515612171578051825260208201915060208101905060208303925061214c565b6001836020036101000a03801982511681845116808217855250505050505090500193505050506040516020818303038152906040526040518082805190602001908083835b6020831015156121dc57805182526020820191506020810190506020830392506121b7565b6001836020036101000a0380198251168184511680821785525050505050509050019150506040518091039020600190049050828473ffffffffffffffffffffffffffffffffffffffff16827f8afcfabcb00e47a53a8fc3e9f23ff47ee1926194bb1350dd007c50b412a6cee8856040518080602001828103825283818151815260200191508051906020019080838360005b8381101561228a57808201518184015260208101905061226f565b50505050905090810190601f1680156122b75780820380516001836020036101000a031916815260200191505b509250505060405180910390a46122cf81600161122a565b508360066000836001026000191660001916815260200190815260200160002060000160006101000a81548173ffffffffffffffffffffffffffffffffffffffff021916908373ffffffffffffffffffffffffffffffffffffffff160217905550826006600083600102600019166000191681526020019081526020016000206001018190555081600660008360010260001916600019168152602001908152602001600020600201908051906020019061238b92919061314d565b50828473ffffffffffffffffffffffffffffffffffffffff16827f1f920dbda597d7bf95035464170fa58d0a4b57f13a1c315ace6793b9f63688b8856040518080602001828103825283818151815260200191508051906020019080838360005b838110156124075780820151818401526020810190506123ec565b50505050905090810190601f1680156124345780820380516001836020036101000a031916815260200191505b509250505060405180910390a48090509392505050565b600080600060608060606002600088600019166000191681526020019081526020016000206000015460026000896000191660001916815260200190815260200160002060010154600260008a6000191660001916815260200190815260200160002060020160009054906101000a900473ffffffffffffffffffffffffffffffffffffffff16600260008b60001916600019168152602001908152602001600020600301600260008c60001916600019168152602001908152602001600020600401600260008d60001916600019168152602001908152602001600020600501828054600181600116156101000203166002900480601f0160208091040260200160405190810160405280929190818152602001828054600181600116156101000203166002900480156125c15780601f10612596576101008083540402835291602001916125c1565b820191906000526020600020905b8154815290600101906020018083116125a457829003601f168201915b50505050509250818054600181600116156101000203166002900480601f01602080910402602001604051908101604052809291908181526020018280546001816001161561010002031660029004801561265d5780601f106126325761010080835404028352916020019161265d565b820191906000526020600020905b81548152906001019060200180831161264057829003601f168201915b50505050509150808054600181600116156101000203166002900480601f0160208091040260200160405190810160405280929190818152602001828054600181600116156101000203166002900480156126f95780601f106126ce576101008083540402835291602001916126f9565b820191906000526020600020905b8154815290600101906020018083116126dc57829003601f168201915b5050505050905095509550955095509550955091939550919395565b600081600160008560001916600019168152602001908152602001600020600001541415612746576001905061274b565b600090505b92915050565b600080600260008a6000191660001916815260200190815260200160002060020160009054906101000a900473ffffffffffffffffffffffffffffffffffffffff1673ffffffffffffffffffffffffffffffffffffffff161115612a0f5785600260008a600019166000191681526020019081526020016000206001018190555083600260008a60001916600019168152602001908152602001600020600301908051906020019061280492919061314d565b5082600260008a60001916600019168152602001908152602001600020600401908051906020019061283792919061314d565b5081600260008a60001916600019168152602001908152602001600020600501908051906020019061286a9291906131cd565b508473ffffffffffffffffffffffffffffffffffffffff168789600019167f3bab293fc00db832d7619a9299914251b8747c036867ec056cbd506f60135b138988888860405180858152602001806020018060200180602001848103845287818151815260200191508051906020019080838360005b838110156128fb5780820151818401526020810190506128e0565b50505050905090810190601f1680156129285780820380516001836020036101000a031916815260200191505b50848103835286818151815260200191508051906020019080838360005b83811015612961578082015181840152602081019050612946565b50505050905090810190601f16801561298e5780820380516001836020036101000a031916815260200191505b50848103825285818151815260200191508051906020019080838360005b838110156129c75780820151818401526020810190506129ac565b50505050905090810190601f1680156129f45780820380516001836020036101000a031916815260200191505b5097505050505050505060405180910390a460019050612a14565b600090505b979650505050505050565b6000806000600180600033604051602001808273ffffffffffffffffffffffffffffffffffffffff1673ffffffffffffffffffffffffffffffffffffffff166c010000000000000000000000000281526014019150506040516020818303038152906040526040518082805190602001908083835b602083101515612ab95780518252602082019150602081019050602083039250612a94565b6001836020036101000a03801982511681845116808217855250505050505090500191505060405180910390206000191660001916815260200190815260200160002060000154141515612b0c57600080fd5b85600019166001600088600019166000191681526020019081526020016000206002015460001916141515612b4057600080fd5b600160008760001916600019168152602001908152602001600020600080820160009055600182016000905560028201600090555050600091505b6003600086815260200190815260200160002080549050821015612c0f5785600019166003600087815260200190815260200160002083815481101515612bbe57fe5b9060005260206000200154600019161415612c02576003600086815260200190815260200160002082815481101515612bf357fe5b90600052602060002001600090555b8180600101925050612b7b565b600090505b6004600085815260200190815260200160002080549050811015612ca85785600019166004600086815260200190815260200160002082815481101515612c5757fe5b9060005260206000200154600019161415612c9b576003600085815260200190815260200160002081815481101515612c8c57fe5b90600052602060002001600090555b8180600101925050612c14565b838587600019167f585a4aef50f8267a92b32412b331b20f7f8b96f2245b253b9cc50dcc621d339760405160405180910390a46001925050509392505050565b6000600180600033604051602001808273ffffffffffffffffffffffffffffffffffffffff1673ffffffffffffffffffffffffffffffffffffffff166c010000000000000000000000000281526014019150506040516020818303038152906040526040518082805190602001908083835b602083101515612d7f5780518252602082019150602081019050602083039250612d5a565b6001836020036101000a03801982511681845116808217855250505050505090500191505060405180910390206000191660001916815260200190815260200160002060000154141515612dd257600080fd5b81604051602001808273ffffffffffffffffffffffffffffffffffffffff1673ffffffffffffffffffffffffffffffffffffffff166c010000000000000000000000000281526014019150506040516020818303038152906040526040518082805190602001908083835b602083101515612e625780518252602082019150602081019050602083039250612e3d565b6001836020036101000a03801982511681845116808217855250505050505090500191505060405180910390206001600033604051602001808273ffffffffffffffffffffffffffffffffffffffff1673ffffffffffffffffffffffffffffffffffffffff166c010000000000000000000000000281526014019150506040516020818303038152906040526040518082805190602001908083835b602083101515612f235780518252602082019150602081019050602083039250612efe565b6001836020036101000a03801982511681845116808217855250505050505090500191505060405180910390206000191660001916815260200190815260200160002060020181600019169055508173ffffffffffffffffffffffffffffffffffffffff167f595ee9ffef04d4d652b768860c56905a48f5ab79124bb3b2279df1885536991d60405160405180910390a260019050919050565b50805460018160011615610100020316600290046000825580601f10612fe35750613002565b601f016020900490600052602060002090810190613001919061324d565b5b50565b50805460018160011615610100020316600290046000825580601f1061302b575061304a565b601f016020900490600052602060002090810190613049919061324d565b5b50565b828054600181600116156101000203166002900490600052602060002090601f016020900481019282601f1061308e57805160ff19168380011785556130bc565b828001600101855582156130bc579182015b828111156130bb5782518255916020019190600101906130a0565b5b5090506130c9919061324d565b5090565b828054600181600116156101000203166002900490600052602060002090601f016020900481019282601f1061310e57805160ff191683800117855561313c565b8280016001018555821561313c579182015b8281111561313b578251825591602001919060010190613120565b5b509050613149919061324d565b5090565b828054600181600116156101000203166002900490600052602060002090601f016020900481019282601f1061318e57805160ff19168380011785556131bc565b828001600101855582156131bc579182015b828111156131bb5782518255916020019190600101906131a0565b5b5090506131c9919061324d565b5090565b828054600181600116156101000203166002900490600052602060002090601f016020900481019282601f1061320e57805160ff191683800117855561323c565b8280016001018555821561323c579182015b8281111561323b578251825591602001919060010190613220565b5b509050613249919061324d565b5090565b61326f91905b8082111561326b576000816000905550600101613253565b5090565b905600a165627a7a72305820cf2760911d0b2639979d6eba510723eb5a7cd79009e3469c8206d82c23dca7e60029",
  "source": "pragma solidity ^0.4.24;\n\nimport \"./ERC725.sol\";\nimport \"./ERC735.sol\";\n\n/** @title Self-sovereign identity. */\ncontract Identitat is ERC725, ERC735 {\n    \n    bytes32 public version = \"0.1\";\n    \n    event OwnershipChanged(address indexed newOwner);\n\n    // WHEN WE TALK ABOUT BYTES32 WE TALK ABOUT CONVERTED ADDRESSES WITH KECCAK256\n    mapping (bytes32 => Key) keysStruct;\n    mapping (bytes32 => Claim) claims;\n    mapping (uint256 => bytes32[]) keysByPurpose;\n    mapping (uint256 => bytes32[]) keysByType;\n    mapping (uint256 => bytes32[]) claimIdsByTopic;\n    mapping (bytes32 => Transaction) txn;\n\n    struct Transaction {\n        address to;\n        uint256 value;\n        bytes data;\n        bool approved;\n        bool executed;\n    }\n        \n    /** MUST only be done by keys of purpose 1, or the identity itself. \n     *  If its the identity itself, the approval process will determine its approval.\n     */\n    modifier managerOnly {\n        require(keysStruct[keccak256(abi.encodePacked(msg.sender))].purpose == MANAGEMENT_KEY); //1\n        _;\n    }\n    \n    /** MUST only be done by keys of purpose 2, or the identity itself. \n     *  If its the identity itself, the approval process will determine its approval.\n     */\n    modifier actorOnly {\n        require(keysStruct[keccak256(abi.encodePacked(msg.sender))].purpose == ACTION_KEY);\n        _;\n    }\n    \n    /** This SHOULD create a pending claim, which SHOULD to be approved or \n     *  rejected by n of m approve calls from keys of purpose 1.\n     */\n    modifier claimSignerOnly {\n        require(keysStruct[keccak256(abi.encodePacked(msg.sender))].purpose == CLAIM_SIGNER_KEY);\n        _;\n    }\n\n    modifier encryptionOnly {\n        require(keysStruct[keccak256(abi.encodePacked(msg.sender))].purpose == ENCRYPTION_KEY);\n        _;\n    }\n\n    /** @dev Constructor that create a MANAGEMENT_KEY to the contract deployer.\n      */\n    constructor () public {\n\n        bytes32 _key = keccak256(abi.encodePacked(msg.sender));\n        keysStruct[_key] = Key({\n            purpose: 1,\n            keyType: 1,\n            key: _key\n        });\n        keysByPurpose[1].push(_key);\n        keysByType[1].push(_key);\n        \n        emit KeyAdded(\n            _key, \n            keysStruct[_key].purpose, \n            keysStruct[_key].keyType);\n    }\n\n\n    /** @dev Returns the key data, if hold by the identity.\n      * @param _key keccack256 of original key.\n      * @return purpose e.g., MANAGEMENT_KEY = 1, ACTION_KEY = 2, CLAIM_SIGNER_KEY = 3, ENCRYPTION_KEY = 4;\n      * @return keyType e.g. 1 = ECDSA, 2 = RSA, etc.\n      * @return key the key another time.\n      */\n    function getKey(\n        bytes32 _key) \n        public view returns(uint256 purpose, uint256 keyType, bytes32 key) {\n\n        return(\n            keysStruct[_key].purpose, \n            keysStruct[_key].keyType, \n            keysStruct[_key].key);\n    }\n\n    /** @dev Returns the TRUE if a key has is present and has the given purpose. If key is not present it returns FALSE.\n      * @param _key keccack256 of original key.\n      * @param _purpose purpose to check.\n      * @return exist True if exist, False if not.\n      */\n    function keyHasPurpose(\n        bytes32 _key, \n        uint256 _purpose) \n        public view returns(bool exists) {\n\n        if (keysStruct[_key].purpose == _purpose) {\n            return true;\n        }else {\n            return false;\n        }\n    }\n    \n    /** @dev Returns an array of public key bytes32 hold by this identity.\n      * @param _purpose purpose to check.\n      * @return keys list of keys from one purpose.\n      */\n    function getKeysByPurpose(\n        uint256 _purpose) \n        public view returns (bytes32[] keys) {\n\n        return keysByPurpose[_purpose];\n    }\n\n    /** @dev Returns the key type of a key.\n      * @param _key key to want to know the type.\n      * @return keyType the type of the key.\n      */\n    function getKeyType(\n        bytes32 _key) \n        public view returns(uint256 keyType) {\n\n        return keysStruct[_key].keyType;\n    }\n\n    /** @dev Returns a list of keys with the same key type.\n      * @param _keyType the keyType we want to check.\n      * @return keys list of keys with the same _keyType.\n      */\n    function getKeysByType(\n        uint256 _keyType) \n        public view returns(bytes32[] keys) {\n\n        return keysByType[_keyType];\n    }\n\n    /** @dev Adds a _key to the identity. The _purpose specifies the purpose of key. Initially we propose four purposes\n      * @dev 1: MANAGEMENT keys, which can manage the identity\n      * @dev 2: ACTION keys, which perform actions in this identities name (signing, logins, transactions, etc.)\n      * @dev 3: CLAIM signer keys, used to sign claims on other identities which need to be revokable.\n      * @dev 4: ENCRYPTION keys, used to encrypt data e.g. hold in claims\n      * @param _key the new key to want to create.\n      * @return _purpose the purpose of the key\n      * @return _keyType the type of encryptation of the key.\n      * @return success true if the key succefully created or false if not.\n      */\n    function addKey(\n        bytes32 _key, \n        uint256 _purpose, \n        uint256 _keyType) \n        public managerOnly returns (bool success) {\n        \n        require(keysStruct[_key].key != _key); // Key sould not exist\n       \n        //require(approve(uint256(_key), true)); // TODO es necesario aqu?\n\n        keysStruct[_key] = Key( {\n            purpose: _purpose,\n            keyType: _keyType,\n            key: _key\n        });\n\n        keysByPurpose[_purpose].push(_key);\n        keysByType[_keyType].push(_key);\n        \n        emit KeyAdded(\n            _key, \n            _purpose, \n            _keyType);\n        \n        return true;\n    }\n\n    /** @dev Removes _key from the identity.\n      * @param _key key that want to delete.\n      * @param _keyType key type of the key that want to delete.\n      * @param _purpose purpose of the key that want to delete.\n      * @return success true if succefully executed, false if not.\n      */\n    function removeKey(\n        bytes32 _key, \n        uint256 _purpose, \n        uint256 _keyType) \n        public managerOnly returns (bool success) {\n        \n        require(keysStruct[_key].key == _key);\n\n        delete keysStruct[_key];\n        \n        for(uint i = 0; i<keysByPurpose[_purpose].length; i++){\n            if(keysByPurpose[_purpose][i] == _key)\n                delete keysByPurpose[_purpose][i];\n        }\n\n        for(uint j = 0; j<keysByType[_keyType].length; i++){\n            if(keysByType[_keyType][j] == _key)\n                delete keysByPurpose[_keyType][j];\n        }\n\n        emit KeyRemoved(\n            _key, \n            _purpose, \n            _keyType);\n\n        return true;\n    }\n\n    /** @dev Executes an action on other contracts, or itself, or a transfer of ether.\n      * @param _to x\n      * @param _value x\n      * @param _data x\n      * @return executionId x\n      */\n    function execute(\n        address _to, \n        uint256 _value, \n        bytes _data) \n        public returns (uint256 executionId) {\n        \n        //SHOULD require approve to be called with one or more keys of purpose 1 or 2 to approve this execution.\n        require((keysStruct[keccak256(abi.encodePacked(msg.sender))].purpose == MANAGEMENT_KEY) || (keysStruct[keccak256(abi.encodePacked(msg.sender))].purpose == ACTION_KEY));\n        \n        executionId = uint256(keccak256(abi.encodePacked(_to, _value, _data)));\n\n        //require(approve(executionId,true));\n        emit ExecutionRequested(\n            executionId,\n            _to,\n            _value, \n            _data);\n\n        approve(executionId,true); //TODO always aprove?\n        \n        txn[bytes32(executionId)].to = _to;\n        txn[bytes32(executionId)].value = _value;\n        txn[bytes32(executionId)].data = _data;\n        // txn[bytes32(executionId)].approved = ;\n        // txn[bytes32(executionId)].executed = ;\n        \n        emit Executed(\n            executionId, \n            _to, \n            _value, \n            _data);\n        return executionId;\n    }\n\n    /** @dev Approves an execution or claim addition.\n      * @param _id x\n      * @param _approve x\n      * @return success returns true if succefully executed the code, false if not\n      */\n    function approve(\n        uint256 _id, \n        bool _approve) \n        public returns (bool success) {\n\n        require((keysStruct[keccak256(abi.encodePacked(msg.sender))].purpose == MANAGEMENT_KEY) || (keysStruct[keccak256(abi.encodePacked(msg.sender))].purpose == ACTION_KEY));\n\n        if (_approve) {\n            emit Approved(_id, _approve);\n            txn[bytes32(_id)].approved = true;\n            success = txn[bytes32(_id)].to.call(txn[bytes32(_id)].data);\n\n            if(success) {\n                txn[bytes32(_id)].executed = true;\n                uint256 executionId;\n                executionId = uint256(keccak256(abi.encodePacked(txn[bytes32(_id)].to, txn[bytes32(_id)].value, txn[bytes32(_id)].data)));\n                emit Executed(\n                    executionId, \n                    txn[bytes32(_id)].to, \n                    txn[bytes32(_id)].value, \n                    txn[bytes32(_id)].data);\n                return true;\n            }\n\n            else{\n                //fail\n                txn[bytes32(_id)].executed = false;\n                return false;\n            }\n                            \n        }else {\n            txn[bytes32(_id)].approved = false;\n            return false;\n        }\n        \n    }\n\n    /** @dev Requests the ADDITION of a claim from an issuer.\n      * @param _topic is the type of claim.\n      * @param _scheme the estructure of the claim\n      * @param _issuer from who comes the claim\n      * @param _signature is a signed message of the following structure: keccak256(address subject_address, uint256 _topic, bytes _data).\n      * @param _data data of the claim if exist\n      * @param _uri link for more information of the claim\n      * @return claimRequestId could be send to the approve function, to approve or reject this claim SUPER IMPORTANT\n      */\n    function addClaim(\n        uint256 _topic, \n        uint256 _scheme, \n        address _issuer, \n        bytes _signature, \n        bytes _data, \n        string _uri) \n        public claimSignerOnly returns (bytes32 claimRequestId) {\n        require(claims[claimId].topic == 0);\n        bytes32 claimId = keccak256(abi.encodePacked(_issuer, _topic));\n\n        claims[claimId] = Claim( {\n            topic: _topic,\n            scheme: _scheme,\n            //_issuer = msg.sender,\n            issuer: _issuer,\n            //_signature = this.address+topic+data\n            signature: _signature,\n            data: _data,\n            uri: _uri\n        });\n        \n        claimIdsByTopic[_topic].push(claimId);\n        emit ClaimAdded(\n            claimId, \n            _topic, \n            _scheme, \n            _issuer, \n            _signature, \n            _data, \n            _uri);\n        \n\n        return claimId;\n    }\n    \n    /** @dev Requests the CHANGE of a claim from an issuer.\n      * @param _claimId id of the claim.\n      * @param _topic is the type of claim.\n      * @param _scheme the estructure of the claim\n      * @param _issuer from who comes the claim\n      * @param _signature is a signed message of the following structure: keccak256(address subject_address, uint256 _topic, bytes _data).\n      * @param _data data of the claim if exist\n      * @param _uri link for more information of the claim\n      * @return success true if the claim change, false if\n      */\n    function changeClaim(\n        bytes32 _claimId, \n        uint256 _topic, \n        uint256 _scheme, \n        address _issuer, \n        bytes _signature, \n        bytes _data, \n        string _uri) \n        public returns (bool success) {\n\n        if (claims[_claimId].issuer > 0) { // exist and want to update\n            //topic and issuer can't change\n            //claims[claimId].topic = _topic;\n            claims[_claimId].scheme = _scheme;\n            //claims[claimId].issuer = _issuer;\n            claims[_claimId].signature = _signature;\n            claims[_claimId].data = _data;\n            claims[_claimId].uri = _uri;\n\n            emit ClaimChanged(\n                _claimId, \n                _topic, \n                _scheme, \n                _issuer, \n                _signature, \n                _data, \n                _uri);\n            return true;\n        }else {\n            return false;\n        }\n    }\n\n    /** @dev Removes a claim. Can only be removed by the claim issuer, or the claim holder itself.\n      * @param _claimId id of the claim.\n      * @return success true if the claim change, false if\n      */\n    function removeClaim(\n        bytes32 _claimId) \n        public returns (bool success) {\n\n        require(msg.sender == claims[_claimId].issuer);\n        emit ClaimRemoved(\n            _claimId, \n            claims[_claimId].topic, \n            claims[_claimId].scheme, \n            claims[_claimId].issuer, \n            claims[_claimId].signature, \n            claims[_claimId].data, \n            claims[_claimId].uri);\n        delete claims[_claimId];\n        for(uint i = 0; i<claimIdsByTopic[claims[_claimId].topic].length; i++){\n            if(claimIdsByTopic[claims[_claimId].topic][i] == _claimId)\n                delete claimIdsByTopic[claims[_claimId].topic][i];\n        }  \n\n        return true;\n    }\n\n    /** @dev Returns a claim by ID.\n      * @param _claimId id of the claim.\n      * @param topic is the type of claim.\n      * @param scheme the estructure of the claim\n      * @param issuer from who comes the claim\n      * @param signature is a signed message of the following structure: keccak256(address subject_address, uint256 _topic, bytes _data).\n      * @param data data of the claim if exist\n      * @param uri link for more information of the claim\n      */\n    function getClaim(\n        bytes32 _claimId) \n        public view returns (\n        uint256 topic, uint256 scheme, address issuer, bytes signature, bytes data, string uri) {\n\n        return (\n            claims[_claimId].topic, \n            claims[_claimId].scheme, \n            claims[_claimId].issuer, \n            claims[_claimId].signature, \n            claims[_claimId].data, \n            claims[_claimId].uri);\n    }\n\n    /** @dev Return a list of all claims with same topic\n      * @param _topic topic we want to check\n      * @return claimIds list of the claims with the same topic\n      */\n    function getClaimIdsByTopic(\n        uint256 _topic) \n        public view returns(bytes32[] claimIds) {\n\n        return claimIdsByTopic[_topic];\n    }\n\n    /** @dev Change the ownership (ManagerKey) of the contract to a new one\n      * @param _newOwner the address of the new ownership\n      * @return success true if the ownership address change\n      */\n    function transferOwnership(\n        address _newOwner) \n        public managerOnly returns(bool success) {\n\n        keysStruct[keccak256(abi.encodePacked(msg.sender))].key = keccak256(abi.encodePacked(_newOwner));\n        emit OwnershipChanged(_newOwner);\n        return true;\n    }\n\n    /** @dev Makes this contract payable.\n      */\n    function() public payable { }\n}",
  "sourcePath": "/home/bernat/projects/caelum-labs/identity-api/identity/contracts/Identitat.sol",
  "compiler": {
    "name": "solc",
    "version": "0.4.24+commit.e67f0147.Emscripten.clang"
  },
  "schemaVersion": "2.0.1",
  "updatedAt": "2018-07-19T21:26:27.409Z"
}